{
    "_format": "hh-sol-artifact-1",
    "contractName": "Registry",
    "sourceName": "contracts/Registry.sol",
    "abi": [
        {
            "anonymous": false,
            "inputs": [
                {
                    "indexed": false,
                    "internalType": "string",
                    "name": "cid",
                    "type": "string"
                },
                {
                    "indexed": true,
                    "internalType": "address",
                    "name": "owner",
                    "type": "address"
                },
                {
                    "indexed": false,
                    "internalType": "uint256",
                    "name": "timestamp",
                    "type": "uint256"
                }
            ],
            "name": "LogEntry",
            "type": "event"
        },
        {
            "inputs": [
                {
                    "internalType": "string",
                    "name": "_cid",
                    "type": "string"
                }
            ],
            "name": "confirmRegistry",
            "outputs": [
                {
                    "internalType": "string",
                    "name": "",
                    "type": "string"
                }
            ],
            "stateMutability": "view",
            "type": "function"
        },
        {
            "inputs": [
                {
                    "internalType": "string",
                    "name": "_cid",
                    "type": "string"
                }
            ],
            "name": "getCidInfo",
            "outputs": [
                {
                    "internalType": "address",
                    "name": "",
                    "type": "address"
                },
                {
                    "internalType": "uint256",
                    "name": "",
                    "type": "uint256"
                }
            ],
            "stateMutability": "view",
            "type": "function"
        },
        {
            "inputs": [],
            "name": "getCids",
            "outputs": [
                {
                    "internalType": "string[]",
                    "name": "",
                    "type": "string[]"
                }
            ],
            "stateMutability": "view",
            "type": "function"
        },
        {
            "inputs": [
                {
                    "internalType": "string",
                    "name": "_cid",
                    "type": "string"
                }
            ],
            "name": "getOwner",
            "outputs": [
                {
                    "internalType": "address",
                    "name": "",
                    "type": "address"
                }
            ],
            "stateMutability": "view",
            "type": "function"
        },
        {
            "inputs": [
                {
                    "internalType": "string",
                    "name": "_cid",
                    "type": "string"
                }
            ],
            "name": "getTimestamp",
            "outputs": [
                {
                    "internalType": "uint256",
                    "name": "",
                    "type": "uint256"
                }
            ],
            "stateMutability": "view",
            "type": "function"
        },
        {
            "inputs": [
                {
                    "internalType": "string",
                    "name": "_cid",
                    "type": "string"
                }
            ],
            "name": "register",
            "outputs": [],
            "stateMutability": "nonpayable",
            "type": "function"
        }
    ],
    "bytecode": "0x608060405234801561001057600080fd5b5061070d806100206000396000f3fe608060405234801561001057600080fd5b50600436106100625760003560e01c806330a29d391461006757806332e5e595146100855780634aaf4a12146100a65780639ec9a701146100d1578063bcb924b814610103578063f2c298be14610123575b600080fd5b61006f610138565b60405161007c919061051b565b60405180910390f35b610098610093366004610593565b610211565b60405190815260200161007c565b6100b96100b4366004610593565b61023b565b6040516001600160a01b03909116815260200161007c565b6100e46100df366004610593565b61026b565b604080516001600160a01b03909316835260208301919091520161007c565b610116610111366004610593565b6102c1565b60405161007c9190610644565b610136610131366004610593565b610340565b005b60606001805480602002602001604051908101604052809291908181526020016000905b8282101561020857838290600052602060002001805461017b9061065e565b80601f01602080910402602001604051908101604052809291908181526020018280546101a79061065e565b80156101f45780601f106101c9576101008083540402835291602001916101f4565b820191906000526020600020905b8154815290600101906020018083116101d757829003601f168201915b50505050508152602001906001019061015c565b50505050905090565b600080826040516102229190610699565b9081526020016040518091039020600101549050919050565b6000808260405161024c9190610699565b908152604051908190036020019020546001600160a01b031692915050565b60008060008360405161027e9190610699565b908152604051908190036020018120546001600160a01b0316906000906102a6908690610699565b90815260200160405180910390206001015491509150915091565b60606000826040516102d39190610699565b908152604051908190036020019020546001600160a01b031661031a57505060408051808201909152600e81526d139bdd081c9959da5cdd195c995960921b602082015290565b505060408051808201909152600a815269149959da5cdd195c995960b21b602082015290565b6040805180820182523380825242602083015291518190600090610365908690610699565b90815260405160209181900382019020825181546001600160a01b0319166001600160a01b03909116178155918101516001928301558154808301835560009290925284516103d9927fb10e2d527612073b26eecdfd717e6a320cf44b4afac2b0732d9fcbe2b7fa0cf60191860190610426565b50816001600160a01b03167f3be2c7c6449fde9264d356d2e8337733b6ac4dd8637176f26aa7c5ad7a13d97b8483602001516040516104199291906106b5565b60405180910390a2505050565b8280546104329061065e565b90600052602060002090601f016020900481019282610454576000855561049a565b82601f1061046d57805160ff191683800117855561049a565b8280016001018555821561049a579182015b8281111561049a57825182559160200191906001019061047f565b506104a69291506104aa565b5090565b5b808211156104a657600081556001016104ab565b60005b838110156104da5781810151838201526020016104c2565b838111156104e9576000848401525b50505050565b600081518084526105078160208601602086016104bf565b601f01601f19169290920160200192915050565b6000602080830181845280855180835260408601915060408160051b870101925083870160005b8281101561057057603f1988860301845261055e8583516104ef565b94509285019290850190600101610542565b5092979650505050505050565b634e487b7160e01b600052604160045260246000fd5b6000602082840312156105a557600080fd5b813567ffffffffffffffff808211156105bd57600080fd5b818401915084601f8301126105d157600080fd5b8135818111156105e3576105e361057d565b604051601f8201601f19908116603f0116810190838211818310171561060b5761060b61057d565b8160405282815287602084870101111561062457600080fd5b826020860160208301376000928101602001929092525095945050505050565b60208152600061065760208301846104ef565b9392505050565b600181811c9082168061067257607f821691505b6020821081141561069357634e487b7160e01b600052602260045260246000fd5b50919050565b600082516106ab8184602087016104bf565b9190910192915050565b6040815260006106c860408301856104ef565b9050826020830152939250505056fea2646970667358221220ef0c41e66f55188c4b578c2c9be38659e10535c9f7a2cdf879b8acc598265d6164736f6c63430008090033",
    "linkReferences": {},
    "deployedLinkReferences": {}
}